:400000000080002011000000ED0E0000ED0E000080B500AF00F09CFF80B500AF294B12221A6003F00DFD284B180003F039FD012003F016FD302003F079FA244B244A1A60BF
:40004000244B8022D2051A60234B234A126802210A431A60214B224A1A60224B00221A60214B214A126808218A431A60FA23DB00180003F04DFB1D4B180003F081FC1C4B21
:40008000E82252011A601B4B1B4A1A601B4BC82252011A60174B1A4A1A601A4B802212061A60194B8022D2021A60184B41221A60174B40221A60074B8022D2051A60C04611
:4000C000BD4680BD30001040001BB70004010B40060000800C020B4078002E407C002E402D3E000064F02E406CF02E40DC050000040301400000014041FF0080000301400A
:4001000040FF008008010B4000010B40080101400401014080B582B000AF72B6394B00221A60FB1D00221A7022E0FB1D1A7813005B009B185B00344A9B183B603B681A7885
:40014000597809020A43997809040A43DB781B06134318003B681A795B791B0213439BB2190000F09FFEFB1D1A78FB1D01321A70FB1D1B78012BD8D9244B254A1A60254BCA
:40018000992212041A60244B992212041A60234B992212041A60224B992212041A60214B992212041A60204A1F4B1B78DBB206210B43DBB213701D4B03221A601C4B1D4AC4
:4001C0001A601D4B20221A601C4BC42292021A601B4B20221A601B4B40221A601A4B802252031A60194B80221A60194B802212041A60FFF711FF00F065FEC046BD4602B0A2
:4002000080BDC0466CF02E40C470010000000240EE0000EE0001024000500F4010500F4020500F4030500F4000700F4000000440080004402400D800000104400801044062
:40024000180104400002044008020440000304400803044010B5064C2378002B07D1054B002B02D0044800E000BF0123237010BDC80F002000000000386D0100084B10B5D1
:40028000002B03D00749084800E000BF07480368002B00D110BD064B002BFBD09847F9E700000000CC0F0020386D0100A80B00200000000090B583B000AF62B602F024FFB0
:4002C000BC1D184B180000F02BFF03002380BB1D1B88002B18D1144B180003F00BF9134B180003F007F9124B180003F003F9114B180003F0FFF8104B180003F0FBF80F4B0F
:40030000180003F0F7F803E00D4B180003F0F2F804F0D2FE00F072FD00F014F804F0CCFEF8E7C0461D0400003C6D01007C6D0100BC6D0100006E01001C6E01003C6E01004D
:40034000586E010090B583B000AF2C4B1B78032B04D0052B30D0022B08D04AE0284B1B78DBB2002B40D000F0B9FF3DE0254B1B781F2B02D000F0C4F938E0234B1B78DBB21F
:4003800001225340DBB2002B02D000F037FA2DE01E4B1B78DBB2012B28D01D4B1B78002B24D000F07BFA1A4B00221A70194B1B685A1C184B1A6019E0114B1B78DBB2002BB8
:4003C0000ED0BC1D144B180000F09AFF03002380BB1D1B88002B0BD1094B00221A7007E0002000F029FF03E0C04602E0C04600E0C046C046BD4603B090BDC0468421002074
:40040000EE0F0020F70F0020EF0F002094210020BC0B0020C00B0020F00F002080B586B000AF786039607B68522B00D937E17B689A00A04BD3181B689F463B687B617B699B
:400440001B78042B00D02CE17B691B7A062B00D027E17B69DB6801331B78FF2B00D020E17B69DB6802331B78312B00D019E17B69DB6803331B78012B00D012E17B69DB6857
:4004800004331B783B2B00D00BE17B69DB6805331B78042B00D004E1874B01221A707B695B68864A1000190006231A0004F09FF97B695A78814B9A71814B180003F01AF816
:4004C000EFE07D4B00221A707E4B00221A707E4B00221A707D4B180003F00CF8C04602F0F1FE01007A4B1A6880231B02134001D0012300E00023CB18002BF0D102F016FEE9
:4005000002F004FF02F044FE02F0FEFDCEE03B683B613B695B6805336E491022180004F057F9031E1CD13B695B6803331B789AB2694B1A803B695B6804331B781B021AB2E2
:40054000654B1B881BB213431BB29AB2624B1A805D4B1B7802221343DAB25B4B1A70A2E03B695B6805335D491022180004F030F9031E00D097E03B695B6803331B789AB222
:40058000574B1A803B695B6804331B781B021AB2534B1B881BB213431BB29AB2504B1A80494B1B7804221343DAB2474B1A707AE03B68FB60FB685B6803331B78292B00D07D
:4005C00073E0FB685B6802331B78022B00D06CE0FB685B681B789AB2424B1A80FB685B6801331B781B021AB23E4B1B881BB213431BB29AB23B4B1A80334B1B780822134356
:40060000DAB2314B1A7050E03B685B88162B04D83B685A88344B1A8002E0334B17221A80294B1B7810221343DAB2274B1A703DE03B68180000F01AF938E03B68BB60BB6899
:400640005B681A88294B1A80BB685B685A88284B1A801D4B1B7801221343DAB21A4B1A7024E03B685B88162B04D83B685A881E4B1A801BE01C4B17221A8017E0114B012269
:400680001A701C4B180002F035FF1B4B180002F031FF0BE0194B180002F02CFF06E0C04604E0C04602E0C04600E0C046C046BD4606B080BD646F0100EE0F0020F00F002037
:4006C000C06E0100EF0F0020F70F0020F86E010008022440986E0100E40F0020A86E0100E60F0020E80F0020AC0B0020EA0F0020EC0F0020106F01002C6F0100486F010076
:4007000080B500AF354B1B78012B1AD002DC002B05D05EE0072B32D00F2B4AD059E0304B304A1178527812020A4300201204120C010C09040A43100019685A6810F0B8F967
:4007400047E0294B1A88294B1A80294B1A88274B5A80264A234B1188528812040A43002111001A785B781B021A4300231204120C1B0C1B041343180010F07EF929E01D4B14
:400780001B8801339AB21C4B1A80194B1A881A4B5A801949134B1A785B781B021A4300231204120C1B0C1B041343180010F04EF90FE00C4B1A785B781B021A430023120481
:4007C000120C1B0C1B0413431721180010F08CF9C04604F071FCC046BD4680BDF70F0020B86E010098210020EA0F002060210020EC0F0020E40F00205C21002080B500AF2E
:400800000A4B1A880A4B1A8109490A4B1A785B781B021A4300231204120C1B0C1B041343180010F0F3F9C046BD4680BDE80F0020B00B00209821002090B585B000AF786042
:400840000A00FB1C1A7004F033FCFB1C1A780E23FC180549786800230CF00EFB03002380C046BD4605B090BDB070010080B582B000AF78607B689A89074B1B889A4207D1F7
:400880007B685A687B681B891900100002F000FDC046BD4602B080BDE40F0020F0B5A5B000AF6B467B60382320229446BC446344180010231A00002103F0A2FF38232022DF
:4008C0009446BC44634452221A70382320229446BC44634465225A70382320229446BC44634464229A70382320229446BC4463444222DA70382320229446BC4463446522EB
:400900001A71382320229446BC44634461225A71382320229446BC44634472229A71382320229446BC4463442C22DA71E14B1B881A00013A882179180A603B6100227A61EB
:40094000386979690200520F0E00F600FE61FE691643FE610200D200BA61BB600022FA60B868F9680200520F0E00F50015430200D4000733DB08DB006A46D31A9D466B464B
:4009800000338422BA18136006F006FB03008022BA18136000230024BB67FC67002300243B677C670523FB6600238C22BA181360DDE04B2320229446BC4463440C222021A4
:4009C000791889188C22BA1812688A1812781A704B2320229446BC4463441B78302B0AD114232022BA18D2188C23FB181B68D31830221A70B4E04B2320229446BC44634415
:400A00001B78312B0AD114232022BA18D2188C23FB181B68D31831221A70A1E04B2320229446BC4463441B78322B0AD114232022BA18D2188C23FB181B68D31832221A70EA
:400A40008EE04B2320229446BC4463441B78332B0AD114232022BA18D2188C23FB181B68D31833221A707BE04B2320229446BC4463441B78342B0AD114232022BA18D21839
:400A80008C23FB181B68D31834221A7068E04B2320229446BC4463441B78352B0AD114232022BA18D2188C23FB181B68D31835221A7055E04B2320229446BC4463441B78A0
:400AC000362B0AD114232022BA18D2188C23FB181B68D31836221A7042E04B2320229446BC4463441B78372B0AD114232022BA18D2188C23FB181B68D31837221A702FE0F9
:400B00004B2320229446BC4463441B78382B0AD114232022BA18D2188C23FB181B68D31838221A701CE04B2320229446BC4463441B78392B0AD114232022BA18D2188C2387
:400B4000FB181B68D31839221A7009E014232022BA18D2188C23FB181B68D31840221A708C23FB181B6801338C22BA1813608C23FB181B68082B00DC1BE7142320229446C0
:400B8000BC44634410211800FFF756FE8023FB181A6849492423FB18180003F039FE00238C22BA181360EBE04A2320229446BC4463442422B9188C22BA1812688A18127847
:400BC0001A704A2320229446BC4463441B78302B0BD18C23FB181B680833382220218C46BC4462443021D154C3E04A2320229446BC4463441B78312B0BD18C23FB181B6885
:400C00000833382220218C46BC4462443121D154AFE04A2320229446BC4463441B78322B0BD18C23FB181B680833382220218C46BC4462443221D1549BE04A232022944655
:400C4000BC4463441B78332B0BD18C23FB181B680833382220218C46BC4462443321D15487E04A2320229446BC4463441B78342B0BD18C23FB181B680833382220218C46A2
:400C8000BC4462443421D15473E04A2320229446BC4463441B78352B10D18C23FB181B680833382220218C46BC4462443521D1545FE0C046AC0B0020C07001004A232022B3
:400CC0009446BC4463441B78362B0BD18C23FB181B680833382220218C46BC4462443621D15446E04A2320229446BC4463441B78372B0BD18C23FB181B6808333822202152
:400D00008C46BC4462443721D15432E04A2320229446BC4463441B78382B0BD18C23FB181B680833382220218C46BC4462443821D1541EE04A2320229446BC4463441B78D8
:400D4000392B0BD18C23FB181B680833382220218C46BC4462443921D1540AE08C23FB181B680833382220218C46BC4462444021D1548C23FB181B6801338C22BA181360B2
:400D80008C23FB181B68082B00DC0DE72C2320229446BC44634414229A80164B1A882C2320218C46BC4463441A812C2320229446BC446344382220218C46BC4462441A6043
:400DC0002C232022BA18D1180B4B1A785B781B021A4300231204120C1B0C1B04134318000FF01EFF04F068F97B689D46C046BD4625B0F0BDE60F00209821002080B500AFD3
:400E0000224B1B78022B1ED0032B00D039E0012002F03CF91E4B1B685A1E1D4B1A601C4B1B68002B2BD11A4B1A4A1A601A4B1B7801225340DAB2184B1A70174B1B7818006A
:400E400002F0FCF81BE0012002F0F8F8134B1B685A1E124B1A60114B1B68002B11D10F4B0F4A1A600C4B1B7801225340DAB20A4B1A70094B1B78180002F008F901E0C04661
:400E800000E0C046C046BD4680BDC04684210020C40B002030750000C80B0020CC0B002050C3000080B582B000AF786039603A687B680021180003F0A3FCC046BD4602B018
:400EC00080BDC04680B500AF054B03221A60054B03221A60044B00221A60C046BD4680BD3000304030003140000E3F4080B500AF03F042FC03001B680C2B00D1FEE7FEE781
:400F000080B584B000AF78600F4B1A687B68D3181A000E4BD31A802B09DC0B4B1B68FB60094B1A687B68D218074B1A6007E003F023FC03000C221A6001235B42FB60FB6861
:400F40001800BD4604B080BDD00B0020C831002080B586B000AF224B7B61224B3B61204B7B6135E03B691B68FB603B695B68BB603B699B683B6000237B600CE0FB681A6874
:400F8000BB681A60BB680433BB60FB680433FB607B6804337B607A683B689A42EED13B69DB683B6000237B6008E0BB6800221A60BB680433BB607B6804337B607A683B68FF
:400FC0009A42F2D13B6910333B617B69013B7B617B69002BC6D103F0D5FBFFF76BF9FEE7010000006473010080B582B000AF154B144A126801218A431A6000237B600FE0AE
:401000007B68032B04D8104B7A689200D35800E00E4B0F4A796889008B507B6801337B607B682F2BECD9FFF775F80A4B00221A60044B044A126801210A431A60C046BD46A1
:4010400002B080BD0000104000000000ED0E000000000020C000002080B500AF194B00221A70194B00221A70184B00221A70184B5A88184B1A80164B9A88164B5A80144BC4
:401080009A79144B1A73124BDA79124B1A71114B0622DA810F4B06221A820E4B00225A820C4B64229A820B4B0022DA82094B012252421A83084B1E221A8000F00FF8C046A6
:4010C000BD4680BDAC21002094210020AA210020D40B0020682100208221002080B500AF0C4B1B88002B05D10B4B0E220021180003F086FB074BDB88002B05D1074B062256
:401100000021180003F07CFB01F00EFCC046BD4680BDC046EC0B00209C2100208C210020B0B594B004AF78603E23FB1800221A802823FA18394B1000190014231A0003F052
:4011400056FB374B1B78002B04D1FFF785FF344B01221A707B68002B55D0324B7A681A603E23FB181B88002B29D11023FB181C22BA185A601023FB182022BA181A60102304
:40118000FB1800221A812023FB181B221A802023FB181B225A802023FB1804221A711C23FB1808221A703E23FC180E23FA181023FB181100180004F05BF8030023803E2343
:4011C000FB181B88002B22D13E23FC182823FD18AE231A01144915480023029300230193052300932B0003F099FF030023803E23FB181B88002B0AD10D4B01221A700D4BA0
:4012000008221A7003E03E23FB1801221A803E23FB181B881800BD4610B0B0BDD0700100F80F002064210020C8000020DD180000842100208521002090B585B000AF0200E7
:40124000FB1D1A70FB1D1B78022B04D90E23FB1801221A8035E0FB1D1B78002B09D11C4B0A221A811A4B30225A80194B30229A800EE0FB1D1B78012B0AD1154B96221A816F
:40128000134B802212015A80114BE122D2009A80104BFA1D12781A700E23FC180C4B18000EF042FE030023800E23FB181B88002B07D1094B1B78DBB204221343DAB2064B21
:4012C0001A700E23FB181B881800BD4605B090BDD40B0020AA210020AC21002080B500AF0EF04EFE054B1B78DBB208221343DAB2024B1A70C046BD4680BDC046AC210020CF
:4013000090B585B000AF7860294B1B78052B05D00E23FB180422FF321A8041E07B68002B04D10E23FB1801221A8039E00D23FB1800221A7012E00D23FB181B780D22BA1895
:4013400012787968895C1B4AD3180A1C5A710D23FB181A780D23FB1801321A700D23FB181B78052BE7D97B689A79124BDA720E23FC18104B18000EF07DFD030023800E239B
:40138000FB181B88002B0BD1094B04221A700A4B1B88002B04D0084B1B8818000BF040FD0E23FB181B881800BD4605B090BDC04684210020682100208221002090B583B07C
:4013C00000AF104B1B78042B04D0BB1D0422FF321A8011E0BC1D0EF03FFD030023800A4B1B88002B01D00BF035FDBB1D1B88002B02D1044B05221A70BB1D1B881800BD46AA
:4014000003B090BD842100208221002080B582B000AF78607B681B789AB27B6801331B789BB21B029BB213439BB21800BD4602B080BDC04680B582B000AF78607B68DB882C
:401440000D4A934214D10D4B5B88002B08D17B689A880A4B5A807B689A78084B1A7007E0074B1B687A68911D8622520010009847C046BD4602B080BD052A00008C210020ED
:401480006421002080B582B000AF78607B689B880B4A934210D10B4B9B88002B04D17B685A88084B9A8007E0074B1B687A68111D8622520010009847C046BD4602B080BD30
:4014C000022900008C2100206421002080B582B000AF78600C4B5A887B689B899A420ED10A4B1B6879688322520010009847084B1B78DBB201229343DAB2054B1A70C046EF
:40150000BD4602B080BDC0468C21002064210020AC21002080B582B000AF7860C046BD4602B080BD80B582B000AF7860C046BD4602B080BD80B582B000AF7860C046BD4691
:4015400002B080BD80B588B000AF7860394B1B78022B6AD1384B1B88002B66D00C23F918354B022208009B180422190003F03FF97B6859687B681B891A000C23FB180433BB
:40158000180003F034F90C23FB18180001F040FA294B1B8801339AB20C23FB181A80274B1B781900264A0B005B005B185B00D31802331A880C23FB185A800C23FB181A8877
:4015C0000C23FB185B889A4221D80C23F9181D4B1A785B781B021A4300231204120C1B0C1B04134318000FF08FFA031E12D0164B1B6884225200002110009847134B1B78F7
:40160000DBB202229343DAB2104B1A7002E0012000F0FCFB0D4B1B78DBB201229343DAB20A4B1A70044B00221A80C046BD4608B080BDC04685210020FC0F0020AB21002000
:40164000EC0B00209821002064210020AC21002080B588B000AF7860394B1B78022B6AD1384B1B88002B66D00C23F918354B022208009B180422190003F0B9F87B685968C8
:401680007B681B891A000C23FB180433180003F0AEF80C23FB18180001F0BAF9294B1B8801339AB20C23FB181A80274B1B781900264A0B005B005B185B00D31802331A886A
:4016C0000C23FB185A800C23FB181A880C23FB185B889A4221D80C23F9181D4B1A785B781B021A4300231204120C1B0C1B04134318000FF009FA031E12D0164B1B688422CF
:401700005200002110009847134B1B78DBB202229343DAB2104B1A7002E0012000F076FB0D4B1B78DBB201229343DAB20A4B1A70044B00221A80C046BD4608B080BDC0460F
:4017400085210020FC0F0020AB210020EC0B00209821002064210020AC21002080B500AF094B00225A70084B00221A70074B1B78052B03D1054B07221A7002E0034B0822A1
:401780001A70C046BD4680BD982100208521002080B582B000AF78607B681B78032B3ED1264B1B78DBB21A000223134037D0244B1B78022B10D002DC012B05D024E0032BCF
:4017C00012D0042B18D01FE01E4B1B680822FF3200211000984717E01A4B1B68842252000021100098470FE0164B1B680A22FF3200211000984707E0124B1B6885225200B3
:40180000002110009847C0460C4B1B78DBB202229343DAB2094B1A70094B00221A707B681B78042B05D1084B1B78042B01D1FFF7C5FDC046BD4602B080BDC046AC210020B2
:4018400085210020642100208421002080B500AFC046BD4680BDC04680B584B000AF78600E23FB1800221A707B689B79002B1CD10F23FB1800221A7012E00F23FB181B785E
:401880007A68D35C002B04D00E23FB1801221A700BE00F23FB181A780F23FB1801321A700F23FB181B78052BE7D90E23FB181B781800BD4604B080BD80B582B000AF0200A0
:4018C000BB1D1A80C046BD4602B080BD80B582B000AF7860C046BD4602B080BD80B586B000AF02003960FB1D1A70C64B1B78DBB201221343DAB2C34B1A70FB1D1B78712B2C
:4019000000D95BE19A00C04BD3181B689F460C23FB1807221A700C23FB1800225A700C23FB18180005F0AEFB0C23FB1807221A700C23FB1801225A700C23FB18180005F00C
:40194000A1FBB24B1B681800FFF786FF031E05D0AE4B1B68180003F0B3FB03E0AC4B180003F0AEFB04200EF071F90823FB183F221A700823FB1800225A700823FB181800CA
:401980000EF082F9A34B05221A7020E13B681800FFF7FEFE1BE13B681A789F4B1A7016E13B683B613B691B78002B00D008E13B695B78002B0BD1994B0022DA80974B002289
:4019C0009A80964B964A1A603B69944A5A608D4B1B78DBB201229343DAB28A4B1A70EFE0884B1B78DBB21A002023134000D0E9E08C4B1B78102B02D18A4B0522DA708A4BDC
:401A00001B78884A110018000DF05AFFDAE03B681800FFF75BFFDAE03B681800FFF756FF824B1B88002B01D00BF014FA794B02221A70CCE0774B05221A70C8E0754B1B783C
:401A4000022B00D1C0E06F4B1B78DBB21A000123134000D1B8E06B4B1B78DBB21A00042313400BD06B4B03221A70664B1B78DBB204229343DAB2634B1A70A5E0614B1B78F5
:401A8000DBB21A00082313400BD0624B05221A705C4B1B78DBB208229343DAB2594B1A7092E05C4B1B78032B00D08DE0594B05221A705F4B1B78002B00D085E00120FFF727
:401AC000BBFB031E00D07FE0524B03221A707BE03B681B881800FFF7EFFE78E0524A3B681000190002231A0002F081FE4A4B00221A70504B00221A70FFF7A8FE67E0FFF727
:401B00002DFE64E03B685B88162B05D81623FB183A6852881A8003E01623FB1817221A801623FB1819883B681A8800231204120C1B0C1B04134318000FF034FB47E03B68F9
:401B4000180000F07BF842E03B68180000F096FA3DE000F081FE3AE03B68180000F028FD35E03B68180000F0C7FE30E03B681800FFF7D8FC2BE03B681800FFF7A7FC3B68FB
:401B80001800FFF7D7FC1F4B1B78DBB21A00012313401BD13B6818680EF050FF16E03B681800FFF7CFFC12E03B681800FFF750FD0DE03B681800FFF7ADFC08E0C04606E050
:401BC000C04604E0C04602E0C04600E0C0460D4B1B78DBB21A00112313400ED0094B1B78DBB201229343DAB2064B1A70124B1B68FA1D1278396810009847C046BD4606B08C
:401C000080BDC046AC210020E4700100E80B0020E00B0020842100209421002014100020A80B0020000C00209821002082210020AA210020852100206421002080B586B0C7
:401C400000AF78600023FB606B4B1B78012B00D0CDE06A4B1B78DBB21A000223134000D1C5E00A23FB187A6812891A800A23FB181B88062B05D00A23FB181B88142B00D05E
:401C8000AEE00823FB187A6852891A801423FB1800221A8092E07B685A681423FB181B88D318FB601323FB1800221A70FB681A88534B1B889A4200D276E0FB681A88504BD2
:401CC0005B889A4200D96FE00A23FB181B88062B00D065E01623FB1800221A8055E01623FB181A88474913005B009B185B00CB1804331A88FB689B889A423FD11623FB1823
:401D00001A88404913005B009B185B005B5A002B13D11623FB181A883A4913005B009B185B00FA68CB1811000422180002F05FFD1323FB1801221A7020E01623FB181B8884
:401D4000012B0FD81623FB181B885A1C2D4913005B009B185B00CB1804331A88FB689B889A420BD0284B1B68FA68111D0C22FF32100098471323FB1801221A701623FB18EA
:401D80001A881623FB1801321A801623FB181B88022B09D81323FB181B78002B9FD003E0FB68180000F034FE1423FB181422B9180A22BA18098812888A181A801423FA1876
:401DC0000823FB1812881B889A4200D263E70B4B1B78DBB201229343DAB2084B1A7006E0094B1B680822FF32002110009847C046BD4606B080BDC04685210020AC210020BB
:401E000088210020EC0B00206421002080B582B000AF0200FB1D1A70FB1D1B78002B06D0344B1B780133DAB2324B1A700CE0314B00221A70304B00221A8005E02D4B1B78A3
:401E40000133DAB22B4B1A702A4B1B78022B19D8284B1B781900294A0B005B005B185B009A5A274B1B889A42E8D3224B1B781900224A0B005B005B185B009A5A204B5B881B
:401E80009A42DBD81B4B1B78022B28D8194B1B781A0013005B009B185B00184A9918194B1A785B781B021A4300231204120C1B0C1B04134318000EF027FE031E15D0124BF9
:401EC0001B68842252000021100098470F4B1B78DBB202229343DAB20C4B1A7005E00C4B03221A70002000F0ADFAC046BD4602B080BDC046AB210020FC0F0020EC0B0020A8
:401F0000882100209821002064210020AC2100208521002080B582B000AF78607B68DB884F4A934200D184E04D4A93420BDC4D4A934224D04B4A934200DD68E0A822920131
:401F400093420AD087E0484A93423CD0474A93424BD0474A934224D07DE0464B1B88002B04D17B689A88434B1A8074E0424B1B687A68911D86225200100098476BE03D4B8F
:401F80005B88002B04D17B689A883A4B5A8062E0394B1B687A68911D862252001000984759E0344B1B89002B04D17B689A88314B1A8150E0304B1B687A68911D86225200E8
:401FC0001000984747E02B4B5B89002B04D17B689A88284B5A813EE0274B1B687A68911D862252001000984735E0224B9B89002B04D17B689A881F4B9A812CE01E4B1B686A
:402000007A68911D862252001000984723E0194B9B88002B04D17B689A88164B9A801AE0154B1B687A68911D862252001000984711E0104BDB88002B04D17B689A880D4BBB
:40204000DA8007E00C4B1B687A68911D8622520010009847C046C046BD4602B080BDC046032A0000012A0000A62A0000C92A0000042A00009C2100206421002090B593B075
:4020800000AF7860D44B1B78DBB21A000223134000D1D1E13E23FB187A6812891A803C23FB187A6852891A807B685B683B64CB4B1B78032B00D0C7E04623FB1800221A8026
:4020C000B8E03B6C1800FFF7A1F903001A002423FB181A803B6C02333B643B6C1A782423FB189A703B6C01333B643B6C1800FFF78DF903001A002423FB189A803B6C0233AE
:402100003B643E23FB181B88152B33D12423FB1802229A752423FB180622396C9B181022180002F064FB3B6C10333B64AC4B1B781900AC4A0B005B005B185B00D31804332B
:402140001B881A00A84B9A425DD0A54B1B78012B5BD9A34B1B78022B57D8A14B1B789BB2023B9BB22422BA181100180000F0B8FCC0464AE03E23FB181B88072B48D12423D2
:40218000FB1801229A753B6C1800FFF73FF903001A002423FB18DA803B6C02333B64904B1B7819008F4A0B005B005B185B00D31804331B88C0225201934203D08B4A9342C1
:4021C00006D00BE02423FB181800FFF7A3FE1FE02423FB181800FFF72DF919E0804B1B78012B14D97E4B1B78022B10D87C4B1B789BB2023B9BB22422BA181100180000F045
:402200006FFCC04603E0C04602E0C04600E0C046714B1B78DBB201229343DAB26E4B1A704623FB184622B9183E22BA18098812888A181A804623FA183C23FB1812881B885A
:402240009A4200D23DE7F7E0644B1B78022B00D0F2E04623FB1800221A80E4E03B6C1800FFF7D4F803001A000C23FB181A803B6C02333B643B6C1800FFF7C8F803001A0021
:402280000C23FB185A803B6C02333B643B6C1800FFF7BCF803001A000C23FB189A803B6C02333B643E23FB181B88062B30D10C23FB1802229A750EF0A3FC0C23FB185988AC
:4022C0004B4B1A785B781B021A4300231204120C1B0C1B04134318000EF034FC031E07D1444B0C22BA1813CA13C313CA13C388E0414B1B6884225200002110009847364B42
:402300001B78DBB202229343DAB2334B1A7078E03E23FB181B88082B00D072E00C23FB1801229A753B6C1800FFF770F803001A000C23FB18DA803B6C02333B644423FB18EC
:4023400000221A8033E04423FB181A88254913005B009B185B00CB1804331A880C23FB18DB889A421CD14423FB181A881D4913005B009B185B005B5A002B11D14423FB1824
:402380001A88184913005B009B185B000C22BA180220CB1811180422180002F028FA0BE04423FB181A884423FB1801321A804423FB181B88022BC6D9094B1B781900094A94
:4023C0000B005B005B185B00D31804331B881A000A4B9A4214D014E0AC21002085210020AB210020EC0B0020FEFF00000118000098210020FC0F0020642100201218000022
:40240000C0460F4B1B78DBB201229343DAB20C4B1A704623FB184622B9183E22BA18098812888A181A804623FA183C23FB1812881B889A4200D211E7C046BD4613B090BD7F
:40244000AC21002080B582B000AF0200FB1D1A70FB1D1B78002B06D0354B1B780133DAB2334B1A7009E0324B00221A7005E0304B1B780133DAB22E4B1A702D4B1B78022B2E
:4024800019D82B4B1B7819002A4A0B005B005B185B009A5A284B1B889A42E8D3244B1B781900244A0B005B005B185B009A5A224B5B889A42DBD81E4B1B78022B2DD81C4B9B
:4024C0001B781A001B4913005B009B185B001B4A585ACB185B881B04034319001378527812021A4300231204120C1B0C1B04134318000EF0C1FA031E15D0114B1B680A2259
:40250000FF320021100098470E4B1B78DBB202229343DAB20B4B1A7005E00B4B04221A70002000F0E9F8C046BD4602B080BDC046AB210020EC0B00208821002098210020FC
:4025400064210020AC2100208521002080B582B000AF3B0000221A803B0000225A80114B1B78002B09D1104B5B8801339AB23B001A800E4B1A893B005A803B1D3A0012681B
:402580001A603A1D002311880904090C1B0C1B040B43528812041B041B0C13431800BD4602B080BDAB2100208C210020EC0B002080B58AB000AF78600823FB1800225A8042
:4025C0004A4B1B78042B00D08BE0494B1B78DBB21A000223134000D183E01E23FB187A6812891A807B681A7B0823FB181A750823FB187A6812881A800823FB181B7D012BC9
:4026000004D12623FB1804221A8003E02623FB1812221A807B685B683B622423FB1800221A804EE03B6A1800FEF7F0FE03001A000823FB185A803B6A02333B620823FB188B
:402640001B7D022B15D10823FB183A6A043311001022180002F0CBF83B6A10333B62254B1B78012B23D10823FB18180000F0FEFB1DE03B6A1800FEF7C9FE03001A000823E1
:40268000FB189A803B6A02333B621A4B1B78002B04D10823FB181800FEF7F4FE154B1B78012B04D10823FB18180000F0DFFB2423FB182422B9182622BA18098812888A18D5
:4026C0001A802423FA181E23FB1812881B889A42A8D3074B1B78DBB201229343DAB2044B1A70C046BD460AB080BDC04685210020AC210020AB21002080B584B000AF020070
:40270000FB1D1A700C23FB1800221A800C23FB1800225A804A4B1B78012B17D0FB1D1B78002B0DD0464B1B780133DAB2444B1A70434B1B78012B09D1FB1D00221A7005E000
:402740003F4B00221A70FB1D01221A703C4B1B78012B0CD1FB1D1B78180000F0C5FA03001A000C23FB181A60FB1D01221A70344B1B78012B06D0FFF7E9FE03001A000C23EE
:40278000FB181A600C23FB181A882E4B1B889A4215D90C23FB181A882A4B5B889A420ED80C23FB185A88274B1B889A4207D30C23FB181A880C23FB185B889A4203D9204BA9
:4027C0001B78012BA6D91E4B1B78012B21D80C23F9181D4B1A785B781B021A4300231204120C1B0C1B04134318000EF02FF9031E21D0164B1B6885225200002110009847C3
:40280000134B1B78DBB202229343DAB2104B1A7011E0104B05221A700C4B1B681222FF320021100098470A4B1B78DBB202229343DAB2074B1A70C046BD4604B080BDC0468C
:40284000AB210020882100209821002064210020AC2100208521002080B500AF244B1B78DBB21A00022313403FD0224B1B78022B17D002DC012B05D037E0032B1DD0042B0A
:4028800027D032E01B4B02221A700020FFF7BEFA174B1B78DBB201229343DAB2144B1A7023E00120FFF7B2FA114B1B78DBB201229343DAB20E4B1A7017E00120FFF7C2FDC6
:4028C0000B4B1B78DBB201229343DAB2084B1A700BE00120FFF710FF054B1B78DBB201229343DAB2024B1A70C046C046BD4680BDAC2100208521002080B582B000AF786036
:40290000084B1B78DBB21A000223134005D07B689B790A2B01D1FFF79FFFC046BD4602B080BDC046AC21002080B582B000AFBB1D00221A8060E0BB1D1B889A1C3249130097
:402940005B009B185B005B5A002B50D13B1D00221A8040E0BB1D1B882C4A1B01D3180C331A683B1D1B881B01D31800221A80BB1C00221A8019E0BB1D1B88244A1B01D318C6
:402980000C331A683B1D1B881B01D318D968BB1C1A8813005B009B189B00CB1800221A80BB1C1A88BB1C01321A80BB1D1B88174A1B01D3180C331A683B1D1B881B01D3187C
:4029C0009B7A9BB2BA1C12889A42D4D33B1D1A883B1D01321A80BB1D1B880C4A1B01D31809331B789BB23A1D12889A42B2D3BB1D1A88BB1D01321A80BB1D1B88002B9AD0EE
:402A0000C046BD4602B080BDEC0B0020240C002080B584B000AF78600D23FB1800221A700E23FB1800221A8046E00E23FB181B88284A1B01D31808331B78022B35D10E23A0
:402A4000FB181B88234A1B01D318043318687B6804331022190001F0BBFE031E25D10E23FB181B889A1C1C4913005B009B185B005B5A002B19D10E23FB181B889A1C16490B
:402A800013005B009B185B007A68CB1811000422180001F0ACFE114B1B780133DAB20F4B1A700D23FB1801221A700E23FB181A880E23FB1801321A800E23FB181B88002B5F
:402AC00004D10D23FB181B78002BAED0C046BD4604B080BD240C0020EC0B0020AB21002080B584B000AF02003960BB1D1A800D23FB1800221A70774B1B68002B0FD0764B11
:402B00001B88BA1D12889A4206D1724B1B683A681288013A92B21A806E4B00221A600E23FB1800221A80ABE00C23FB1800221A703B689B7D022B27D1BB1D1B88674A1B0143
:402B4000D3180C331A680E23FB181B881B01D3181B7A022B18D1BB1D1B88604A1B01D3180C331A680E23FB181B881B01D31858683B6806331022190001F02AFE031E03D140
:402B80000C23FB1801221A703B689B7D012B27D1BB1D1B88514A1B01D3180C331A680E23FB181B881B01D3181B7A012B18D1BB1D1B884A4A1B01D3180C331A680E23FB18B6
:402BC0001B881B01D31858683B6806330222190001F0FEFD031E03D10C23FB1801221A700C23FB181B78012B43D1BB1D1B883B4A1B01D3180C331A680E23FB181B881B01A2
:402C0000D3181B88002B34D1BB1D1B88334A1B01D3180C331A680E23FB181B881B01D3183A6892881A80BB1D1B882C4A1B01D3180C331A680E23FB181B881B01D3183A6889
:402C400092785A72BB1D1B88244A1B01D3180C331A680E23FB181B881B01D3189A1C1D4B1A601D4BBA1D12881A800D23FB1801221A700E23FB181A880E23FB1801321A80ED
:402C8000BB1D1B88154A1B01D31809331B789BB20E22BA1812889A4205D20D23FB181B78002B00D140E70B4B1B68002B0DD0094B1A680B4B1B7818000A4903005B001B1833
:402CC0005B00CB1802331B881380C046BD4604B080BDC0462010002024100020240C0020AB210020EC0B002080B584B000AF0200FB1D1A700823FB1800221A800823FB1840
:402D000000225A80FB1D1B78002B2DD0524B1B880133524A1288524912018A1809321278934206D24C4B1B8801339AB24A4B1A8023E04A4B1B88013309D1484B1B880133BC
:402D40009AB2464B1A80444B00221A8015E0454B1B780133DAB2434B1A703F4B1B8801339AB23D4B1A8008E03C4B00221A803A4B00221A80FB1D01221A70384B1B88384AF9
:402D80001B01D31809331B789AB2334B1B889A421FD9324B1B88324A1B01D3180C331A682D4B1B881B01D3181B8801339AB20823FB181A80294B1B88294A1B01D3180C33AB
:402DC0001A68254B1B881B01D3185A880823FB185A800823FB181A88234B1B889A4215D90823FB181A88204B5B889A420ED80823FB185A881C4B1B889A4207D30823FB1874
:402E00001A880823FB185B889A420CD9134B1B88134A1B01D31809331B789AB20E4B1B889A4200D96EE70C23FB180822BA1812681A600C23FA18002311880904090C1B0C10
:402E40001B040B43528812041B041B0C13431800BD4604B080BDC0461E1000201C100020240C0020AB2100208821002080B584B000AF78600E23FB1800221A700F23FB1883
:402E800000221A70B9E00D23FB1800221A707B681B7D022B37D1664B1B88664A1B01D3180C331A68644B1B881B01D318D9680F23FB181A7813005B009B189B00CB181B7ABD
:402EC000022B20D15A4B1B885A4A1B01D3180C331A68594B1B881B01D318D9680F23FB181A7813005B009B189B00CB1858687B6804331022190001F06BFC031E03D10D2359
:402F0000FB1801221A707B681B7D012B37D1484B1B88484A1B01D3180C331A68464B1B881B01D318D9680F23FB181A7813005B009B189B00CB181B7A012B20D13C4B1B88C4
:402F40003C4A1B01D3180C331A683B4B1B881B01D318D9680F23FB181A7813005B009B189B00CB1858687B6804330222190001F02FFC031E03D10D23FB1801221A700D23D4
:402F8000FB181B78012B31D1294B1B88294A1B01D3180C331A68284B1B881B01D318D9680F23FB181A7813005B009B189B00CB181B88002B1AD11E4B1B881E4A1B01D318E3
:402FC0000C331A681C4B1B881B01D318D9680F23FB181A7813005B009B189B00CB187A6852881A800E23FB1801221A700F23FB181A780F23FB1801321A700D4B1B880D4AD6
:403000001B01D3180C331A680B4B1B881B01D3189B7A0F22BA1812789A4205D20E23FB181B78002B00D12EE7C046BD4604B080BD1C100020240C00201E10002080B584B03E
:4030400000AF0200FB1D1A700F4B1B68DAB20F23FB1840218A431A70FB1D1B789B01DBB240221340D9B20F23FB180F22BA1812780A431A70044B0F22BA1812781A60C0467E
:40308000BD4604B080BDC0460002044080B584B000AF0200FB1D1A700D4B1B68DAB20F23FB187F210A401A70FB1D1B78DB01D9B20F23FB180F22BA1812780A431A70044BEA
:4030C0000F22BA1812781A60C046BD4604B080BD0003044080B500AF00F04CF9C046BD4680BDC04680B500AF064B064A1268802109060A431A6000F033F800F039F8C0466B
:40310000BD4680BD0000244080B500AF064B1B78002B04D1FFF7DEFF034B01221A70FFF7E1FFC046BD4680BD2810002080B500AF092000F0C7FB00F023F8074B064A1268FB
:40314000520052081A60054B00221A60092000F0CFFBC046BD4680BD00002440880F244080B500AF092000F097FBC046BD4680BD80B500AF00F088F9C046BD4680BDC0463F
:4031800080B500AF00F09AF9C046BD4680BDC04680B500AF092000F095FB0E4B1A680E4B1A600E4B00221A700D4B0D4A1268802149020A431A600A4B094A126809490A4082
:4031C0001A60094B094A1A60092000F065FBC046BD4680BDB8210020C0310020BD31002004032440FFFFFEFFC00F2440ED0F000080B584B000AF78601E4B1A681E4B1B6801
:403200009A4209D11D4B1B681F221340082B03D01B4B7A681A6028E0164B1B680133FB60FA6880231B019A4201D10023FB60C046114B1B68FA689A42FAD0124B02221A60E1
:403240007B68D9B2104AFB68D3180A1C1A70094BFA681A600D4B1B680222134005D10B4B0A4A126802210A431A60C046BD4604B080BDC046B4210020B021002008022440CE
:4032800040022440800F2440BC210020880F244080B584B000AF786039600023FB6009E07A68FB68D3181B781800FFF7A1FFFB680133FB60FA683B689A42F1D3C046BD467C
:4032C00004B080BD80B582B000AF0E4B1B683B600D4B1A683B689A4205D30B4B1A683B68D31A7B6008E0084B1A683B68D31A80221201944663447B607B681800BD4602B0CE
:4033000080BDC046B0210020B421002080B500AF092000F0D7FA104B1A68104B1A60104B0F4A126802218A431A600E4B0D4A1268802149020A431A600A4B0A4A12680A49F9
:403340000A401A60094B0A4A1A60092000F0A4FAC046BD4680BDC046B0210020B4210020880F244004022440FFFFFEFF800F2440F307000080B500AF294B2A4A1A602A4B76
:4033800000221A60294B2A4A1A602A4B2A4A1A602A4B07221A602A4B00221A60294B01221A60294B244A1A60284B00221A60284B04221A60092000F085FA0321092000F01F
:4033C00017FA244B1900092000F0ECF9224B00221A60224B00221A60214B00221A60214B00221A60204B04221A60204B00221A601E4B1B689AB21E4B1A801E4B00221A60C2
:403400001D4B00221A601D4B00221A701C4B00221A601C4B00221A60C046BD4680BDC046000024400F000002400024404800244001000A00000324400700008004032440F9
:403440001003244044002440000224400402244050002440C13A0000880E2440C80E2440480F2440080F2440C80F2440880F24402A100020C0310020B8210020BD3100209C
:40348000B4210020B021002080B500AF074B074A126807490A40902109040A431A60054B054A12881A60C046BD4680BD00010240FFFF0FFF880F24402A10002080B500AF85
:4034C000084B084A126808490A401A60074B1B689AB2E423DB0013409AB2054B1A80C046BD4680BD00010240FFFF0FFF880F24402A10002080B584B000AF78600023FB60B4
:4035000009E07A68FB68D3181B781800FFF770FEFB680133FB607A68FB68D3181B78002BEFD1C046BD4604B080BDC04690B585B000AF78600C23FC1800F0BBFA0300237044
:403540007B68022B00D8AFE07B68302B00D9ABE05C4B1B78DBB21A007B689A420AD35A4A0F23FB1812781A70584A0E23FB1812781A703FE0564B1B78DBB21A007B689A4205
:403580000AD3544A0F23FB1812781A70524A0E23FB1812781A702DE0504B1B78DBB21A007B689A420AD34E4A0F23FB1812781A704C4A0E23FB1812781A701BE04A4B1B78C3
:4035C000DBB21A007B689A420AD3484A0F23FB1812781A70464A0E23FB1812781A7009E0444A0F23FB1812781A70434A0E23FB1812781A707B68DA1E0B23FB183F498A5C76
:403600001A700B23FB181B782F2B0DD97B682A2B0AD93B4B19221A60052000F041FA0D23FB1819221A7007E0354B1B68DAB20D23FB183F210A401A700B23FA180D23FB18CE
:4036400012781B789A4208D22D4B7A68033A2B498A5C1A60052000F023FA2A4B7A6826498C4662441278D2B21A60274B0F22BA1812781A60254B0E22BA1812781A60052000
:4036800000F07EF90B23FA180D23FB1812781B789A420CD91A4B7A68033A18498A5C1A60052000F0FDF902E0002000F037F90C23FB181B78180000F000FAC046BD4605B03B
:4036C00090BDC04640F3FF0F41F3FF0F42F3FF0F43F3FF0F44F3FF0F45F3FF0F46F3FF0F47F3FF0F48F3FF0F49F3FF0F4AF3FF0F4BF3FF0F4CF3FF0F4DF3FF0FDC7201003F
:403700002CFF0B4028FF0B401CFF0B4020FF0B4080B584B000AF78600023FB60154B154A126801210A431A60134B144A1A60144B134A1268802109020A431A607B68002B54
:4037400012D01023FB600CE0012000F019F900F019F8031E02D00023FB6005E07B68013B7B607B68002BEFD1FB681800BD4604B080BDC04660F02E4078002E400220000070
:4037800010002E4080B582B000AF054B1B68012213407B607B681800BD4602B080BDC0460C002E4080B584B000AF02003960FB1D1A7080239B05FB60FB1D1B781F2B02D921
:4037C000002000F0ABF8FB1D1B7810339B00FA68D3181B68BB60FB1D1B7810339B00FA68D3183A681A60BB681800BD4604B080BD90B587B000AF0200FB1D1A70BB1D0A1CB4
:403800001A70BB1D1B78032B02D9002000F086F8FB1D1B781F2B02D9002000F07FF8FB1D1B7803221340DB0006337B611323FC1800F03FF903002370FB1D1B789B08DBB2AF
:403840009B00144A944663441B68FB6003227B699A401300DA43FB681340FB60BB1D1A787B699A401300FA681343FB60FB1D1B789B08DBB29B00074A94466344FA681A605A
:403880001323FB181B78180000F017F9C046BD4607B090BD00E400E080B582B000AF0200FB1D1A70064BFA1D12781F210A40012191400A001A60C046BD4602B080BDC04698
:4038C00000E100E080B582B000AF0200FB1D1A70064BFA1D12781F210A40012191400A001A60C046BD4602B080BDC04680E100E080B582B000AF0200FB1D1A70064BFA1DF9
:4039000012781F210A40012191400A001A60C046BD4602B080BDC04680E200E080B582B000AF0200FB1D1A7001BEC046BD4602B080BDC04680B582B000AF786009E00D4B16
:403940001B68180000F0ACF87B680B4A944663447B607A6880231B029A42F0D8074B1B687A685343180000F09BF8C046BD4602B080BDC046400C00200080FFFF380C00200A
:4039800080B582B000AF0200BB1D1A80BB1D1B88044A12785343180000F082F8C046BD4602B080BD3C0C002080B500AF0F4B0F4A126801218A431A600C4B0C4A12680221EE
:4039C0008A431A600A4B0A4A126830218A4310210A431A60064B064A126807218A4301210A431A60C046BD4680BDC04600F02E4000FF2E4080B500AF0F4B0F4A1268022103
:403A00008A431A600D4B0D4A126807218A4302210A431A60094B094A126830218A4320210A431A60044B044A126801210A431A60C046BD4680BDC04600F02E4000FF2E40D9
:403A400080B500AFFFF7B0FF044B044A1268802109060A431A60C046BD4680BD00F02E4080B584B000AF78600C4B1B6801221340FB607B68002B02D0012B03D005E0FFF736
:403A800093FF06E0FFF7B6FF03E00020FFF746FFC046FB681800BD4604B080BD00F02E400230800803D00138FDD1C046C046C0467047EFF3108072B6704780F31088704762
:403AC00080B582B000AF344B1B68002B02D0324B1B689847314B1B680422134027D0304B1B6801337B607B682E4A934201D100237B602D4B1B687A689A4205D12B4B1B68CE
:403B00002B4B20221A700AE0284B1B68D9B2294A7B68D3180A1C1A70214B7A681A60264B1B681F221340DAD1244B04221A60244B1B68022213402BD0224B1A68224B1B689A
:403B40009A4215D0204B1B6801333B603A6880231B019A4201D100233B601C4B1C493A688A181278D2B21A60174B3A681A6006E0184B184A126802218A431A6005E0164B0F
:403B80001B681F221340082BD6D1144B02221A60C046BD4602B080BD2C100020CC0F2440C031002001080000B821002040032440BD310020BC29002008032440C00F244015
:403BC0008C0F2440B4210020B021002040022440BC210020880F244008022440800F244080B5CCB000AFF860B960844B982149008C46BC4463441A80002392225200BA1831
:403C00001360002390225200BA181360BB688A225200BA181360794B982252009446BC4463441A888A235B00FB181B68D318744A934200D9C2E08A235B00FB181B681B0AF2
:403C400096225200BA18136096235B00FB181B681B028E225200BA1813609AE000238C225200BA181360002394225200BA1813606BE08E235B00FB181A688A235B00FB188E
:403C80001B689A423DD35D4B982252009446BC4463441A8892235B00FB181B689A4230D9FA6892235B00FB181B68D3181978554B98225200BA18D21894235B00FB181B689F
:403CC000D3180A1C1A708E235B00FB181B681B78DAB2F96892235B00FB181B68CB181B789A4204D001238C225200BA18136092235B00FB181B68013392225200BA181360AD
:403D000011E08E235B00FB181B681B78D9B23D4B98225200BA18D21894235B00FB181B68D3180A1C1A708E235B00FB181B6801338E225200BA18136094235B00FB181B687A
:403D4000013394225200BA18136094235B00FB181B68FF2B8DD98C235B00FB181B68002B0ED01423FA1896235B00FB181B681100180000F057FA030090225200BA18136038
:403D800096235B00FB181B68013396225200BA1813601A4B982252009446BC4463441A8892235B00FB181B689A420CD990235B00FB181B68002B00D150E704E0012390224A
:403DC0005200BA18136090235B00FB181B68002B0BD090235B00FB181B68012B05D001235B4290225200BA18136090235B00FB181B681800BD464CB080BDC046D6FEFFFF03
:403E0000FFFF0300E4FEFFFF80B582B000AF78600A00BB1C1A80BB1C1A887B681A60C046BD4602B080BDC04680B582B000AF78600A00BB1C1A80BB1C1A887B681A60C0461F
:403E4000BD4602B080BDC04680B584B000AF494B1B78DBB21B02484A1278D2B21343FB60464B1B78DBB21B02454A1278D2B21343BB60BB68434A934207D1FB68072B04D16D
:403E8000414BBB600423FB6009E0BA68D4231B019A4204D1FB68042B01D13B4BBB603B4BBA681A603A4BFA681A603A4B1B78DBB21B02394A1278D2B21343FB60FA68802379
:403EC0009B019A4202D0FB68002B01D1334BFB60334BFA681A60334B1B78DBB21B02324A1278D2B21343FB60FB68304A934206D0FB682F4A934202D0FB68052B01D12D4B07
:403F0000FB602D4BFA681A602C4B1B681B097B602B4B1B68AA2B29D17B68012B26D9214B1B78DBB20E2B21D1264B1B78DBB29BB21B0299B2244B1B78DBB29AB2BB1C0A4307
:403F40001A80224BBA1C12881A60214B1B78DBB29BB21B0299B21F4B1B78DBB29AB23B000A431A801C4B3A0012881A60C046BD4604B080BD59F1FF0F58F1FF0F5FF1FF0F5B
:403F80005EF1FF0F580B0000580D00006C002E4074002E405BF1FF0F5AF1FF0F0220000078002E405DF1FF0F5CF1FF0F0F0F000005050000050F000080002E40EC0F00F099
:403FC000E00F00F06DF2FF0F6CF2FF0F84002E406FF2FF0F6EF2FF0F94002E4080B582B000AF0200BB1D1A80BB1D1B881800FFF7C7FCC046BD4602B080BDC04680B582B0FD
:4040000000AF78607B681800FFF794FCC046BD4602B080BD80B500AF00F0ECF8C046BD4680BDC04680B500AF00F0F0F8C046BD4680BDC04680B500AF00F0E8F8044B180059
:4040400000F0A2F8032000F0ADF8C046BD4680BD7D44000080B500AF034B180000F080F8C046BD4680BDC0467D44000080B500AF014B1800BD4680BD0202000080B582B045
:4040800000AF78602B231800BD4602B080BDC04680B582B000AF78602B231800BD4602B080BDC04680B582B000AF78602B231800BD4602B080BDC04680B582B000AF786095
:4040C0002B231800BD4602B080BDC04680B582B000AF78602B231800BD4602B080BDC04680B582B000AF78602B231800BD4602B080BDC04680B582B000AF78602B23180076
:40410000BD4602B080BDC04680B582B000AF78602B231800BD4602B080BDC04680B500AF2B231800BD4680BD80B582B000AF0200FB1D1A702B231800BD4602B080BDC04699
:4041400080B582B000AF786039602B231800BD4602B080BD80B500AFC046BD4680BDC04680B582B000AF786000F050F87B68180000F00AF8032000F015F800F03BF8C046D4
:40418000BD4602B080BDC04680B582B000AF7860034B7A681A67C046BD4602B080BDC0460000002090B585B000AF0200FB1D1A700623FB600B23FC18FFF77BFC03002370B4
:4041C0000B4B0B4A1268C0218A431100FA1D1078FA68904002000A431A600B23FB181B781800FFF76AFCC046BD4605B090BDC0460CE400E080B500AF034B802252011A6077
:40420000C046BD4680BDC04600E100E080B500AF034B802252011A60C046BD4680BDC04680E100E090B5C9B000AF7860396000238C225200BA18136000238A225200BA180A
:4042400013607B686C4A934200D9C7E03B68002B00D1C3E080235A0039680C23FB180833180000F0C4FA7B68644A934201D9644A00E0644A644B902149008C46BC4463441C
:404280001A60614B902252009446BC446344FF225A605E4B0C22BA181A605D4B5D4A1A60C0465A4B1B681B0F1A07F0231B069A4204D1564B1B68FF2213400DE0534B1B6888
:4042C0001B0F1A07A0231B069A4204D04F4B1B68FF22134000E000238C225200BA1813608C235B00FB181B68002B00D07BE02023FF33FC18FFF7DDFB0300237000F090F8AB
:4043000003008A225200BA1813608C235B00FB181B68002B3FD13C4B902252009446BC4463443D4A1A60384B902252009446BC4463441A687B681B041A43334B90214900EE
:404340008C46BC4463441A60304B0C22BA181A602F4B324A1A60C0462C4B1B681B0F1A07F0231B069A4204D1284B1B68FF2213400DE0264B1B681B0F1A07A0231B069A425F
:4043800004D0224B1B68FF22134000E000238C225200BA1813608A235B00FB181B68002B14D100F047F803008A225200BA1813608A235B00FB181B68002B07D08A235B00B2
:4043C000FB181B688C225200BA1813602023FF33FB181B781800FFF770FB04E004238C225200BA1813608C235B00FB181B681800BD4649B090BDC046FF030000FF010000F5
:40440000B6D70001B6D70000ECFEFFFF080010400400104004000080B6D800000500008080B582B000AF00237B607B681800BD4602B080BD80B582B000AF00237B607B683E
:404440001800BD4602B080BD90B583B000AFFC1DFFF72FFB03002370074B074A126804218A431A6030BFFB1D1B781800FFF725FBC046BD4603B090BD10ED00E080B500AF21
:4044800012F046FCC046BD4680BDC046002243088B4274D303098B425FD3030A8B4244D3030B8B4228D3030C8B420DD3FF22090212BA030C8B4202D31212090265D0030B42
:4044C0008B4219D300E0090AC30B8B4201D3CB03C01A5241830B8B4201D38B03C01A5241430B8B4201D34B03C01A5241030B8B4201D30B03C01A5241C30A8B4201D3CB022D
:40450000C01A5241830A8B4201D38B02C01A5241430A8B4201D34B02C01A5241030A8B4201D30B02C01A5241CDD2C3098B4201D3CB01C01A524183098B4201D38B01C01A3E
:40454000524143098B4201D34B01C01A524103098B4201D30B01C01A5241C3088B4201D3CB00C01A524183088B4201D38B00C01A524143088B4201D34B00C01A5241411A15
:4045800000D20146524110467047FFE701B5002000F0F0F802BDC0460029F7D076E7704703460B437FD4002243088B4274D303098B425FD3030A8B4244D3030B8B4228D3A8
:4045C000030C8B420DD3FF22090212BA030C8B4202D31212090265D0030B8B4219D300E0090AC30B8B4201D3CB03C01A5241830B8B4201D38B03C01A5241430B8B4201D375
:404600004B03C01A5241030B8B4201D30B03C01A5241C30A8B4201D3CB02C01A5241830A8B4201D38B02C01A5241430A8B4201D34B02C01A5241030A8B4201D30B02C01A88
:404640005241CDD2C3098B4201D3CB01C01A524183098B4201D38B01C01A524143098B4201D34B01C01A524103098B4201D30B01C01A5241C3088B4201D3CB00C01A5241CC
:4046800083088B4201D38B00C01A524143088B4201D34B00C01A5241411A00D201465241104670475DE0CA0F00D04942031000D34042534000229C4603098B422DD3030AC8
:4046C0008B4212D3FC22890112BA030A8B420CD3890192118B4208D3890192118B4204D389013AD0921100E08909C3098B4201D3CB01C01A524183098B4201D38B01C01A53
:40470000524143098B4201D34B01C01A524103098B4201D30B01C01A5241C3088B4201D3CB00C01A524183088B4201D38B00C01A5241D9D243088B4201D34B00C01A524103
:40474000411A00D20146634652415B10104601D34042002B00D54942704763465B1000D3404201B5002000F005F802BD0029F8D016E770477047C046014B18687047C0465A
:40478000C40F00200E4B70B500251E000D4CE41AA410A54204D0AB00F35898470135F8E712F0CEFD084B00251E00084CE41AA410A54204D0AB00F35898470135F8E770BD5A
:4047C0004C7301004C7301004C7301005473010030B50024A24208D0035D651C0C5DA34201D0181B02E02C00F4E7002030BD002310B59A4203D0CC5CC4540133F9E710BD0B
:4048000003008218934202D019700133FAE770470EB410B59DB002A9029008610B48822488604861012040421FABC881084804CBA400006801938C8100F06EF80023029A44
:4048400013701DB010BC08BC03B01847FFFFFF7FC40F0020F0B58E6885B007000C00039201939E4243D890238A89DB001A423ED003250969236801985B1A029363695D4391
:40488000EB0F5D19029B6D1001331B18AB4200D91D00530510D52900380000F037FB061E14D0029A2169FFF7A2FFA289194B134080221343A38112E02A00380000F086FBDC
:4048C000061E0CD12169380000F0D4FA0C23402201203B60A38940421343A38117E0029B2661F61826606561019EED1AA560019BB34200D21E0032000399206800F0A5FA3C
:404900000020A3689B1BA36023689E19266005B0F0BDC0467FFBFFFFF0B59FB0029005938B890F0016001B0610D50B69002B0DD1402100F0EBFA38603861002804D10C237E
:40494000029A01381360D8E040237B61002306AD6B6120336B761033AB7634002378002B03D1A31B049312D003E0252BF9D00134F4E7A31B320039000298FFF76BFF431C2B
:4049800000D1B4E06A69049B944663446B612378002B00D1ABE00122002352426A6002A95432521801342B60EB60AB601370AB65534E21780522300000F03CFA002807D013
:4049C0000123801B83402A68013413432B60EFE72B68DA0604D55322202102A8121811701A0704D553222B2102A81218117022782A2A03D0099B00200A210EE0059A111DE5
:404A000012680591002A01DB099204E05242EA60022213432B6001340BE02278303A092A04D84B4301349B180120F6E7002800D0099323782E2B1ED163782A2B0AD1059B35
:404A400002341A1D1B680592002B01DA01235B42079310E000230A201A0001346B6021783039092904D84243013452180123F6E7002B00D00792234E21780322300000F0DF
:404A8000D9F9002806D04023801B83402A68013413432B60217806221B48661C297600F0C9F9002812D0194B002B06D10722059B073393430833059314E005AB00933A0039
:404AC000134B2900029800E000BF07E005AB00933A000F4B2900029800F08AF80390039B013304D06B69039A9B186B6135E7BB890B985B0601D5012040421FB0F0BDC0467B
:404B00000C73010012730100167301000000000055480000F7B5170001938A680B6900900C00934200DA130022003B6043321278002A01D001333B6023689B0602D53B6801
:404B400002333B60062523681D401ED0230043331B785A1E9341226892061CD53020E1184331087021005A1C45310978A2184332023311700FE0220001231932019900987F
:404B8000089EB047431C0ED00135E3683A689B1A9D42F0DBDAE72200019943320098089DA847431C02D10120404220E006232068E1683A6803400025042B03D18D1AEB43CA
:404BC000DB171D40A3682269934201DD9B1AED180027BD420AD0220001231A3201990098089EB047431CDED00137F2E70020FEBDF0B58BB006920A0043320793059004924D
:404C00000A7E0C00109B6E2A00D1ABE011D8632A22D009D8002A00D1B5E0582A00D0C5E045310A70814A4FE0642A1DD0692A1BD0BCE0732A00D1AAE009D86F2A29D0702AED
:404C400000D0B3E0202209680A43226037E0752A1FD0782A33D0A9E00E001A684236111D196013683370A4E021681A68080606D4490604D5111D19600023D55E02E0111D03
:404C800019601568002D3BDA2D23049A6D42137036E021681A68080606D4490604D51568111D1960ADB202E0111D196015685F4B227E039308276F2A1DD00A271BE02200FF
:404CC0007821453211705A4A19680392081D226818600D68100602D4500600D5ADB2D30702D520231A4322601027002D03D1202322689A4322602300002243331A7002E0F9
:404D00000A274A4B03936368A360002B09DB0422216891432160002D05D1049E002B11D07BE0002D79D0049E28003900FFF734FC039B013E5B5C280033703900FFF7A6FB5C
:404D4000051EF1D1082F09D12368DB0706D563682269934202DC3023013E3370049B9B1B23612BE009681A68080607D4490605D5111D19601368A28A1A8004E0111D19605B
:404D8000136862691A600023049E236116E01A68111D1960166800216268300000F04AF8002801D0801B6060636803E0260042363270012323610023049A1370079B09AA7D
:404DC00000932100069B0598FFF7A4FE431C02D10120404227E02369320006990598079DA847431CF4D0236800259B070FD4099BE068984217DA180015E022000123193213
:404E000006990598079EB047431CE1D00135E368099A9B1A9D42F0DBE9E72600039B42361B7833708EE70BB0F0BDC0461D7301002E730100C9B28218904204D003788B42AC
:404E400002D00130F8E70020704710B5884202D98B18984201D3002305E09B1A013A08D3995C8154FAE7934203D0CC5CC4540133F9E710BD70B50500002944D00C1F23685A
:404E8000002B00DAE418280000F0D8F81E4A13681100002B02D16360146031E0A3420DD92268A018834203D118685B688218226063600C6024E0A24203D813005A68002AD9
:404EC000F9D11E689819A0420BD12168711858181960824214D110685268411819605A600EE0A04202D90C232B6009E021686018824203D1106852684118216062605C6020
:404F0000280000F09CF870BD58210020032370B5CD1C9D43083506000C2D01D20C2501E0002D01DBA94202D90C23336048E0300000F084F8234B1C681A002100002913D0FC
:404F40000B685B1B0DD40B2B02D90B60CC181EE08C4202D1636813601AE04B6863600C0016E00C004968E9E7174C2368002B03D1300000F051F820602900300000F04CF8C8
:404F8000431C18D00323C41C9C43A0420DD12560300000F054F8200007220B30231D9043C31A0ED05A42E2500BE0211A300000F033F8431CEBD10C233000336000F03FF84F
:404FC000002070BD5821002054210020F8B506000C001500002904D11100FFF797FF040018E0002A03D1FFF745FF2C0012E000F027F885420ED929003000FFF787FF071EBE
:4050000007D021002A00FFF7F2FB21003000FFF731FF3C002000F8BD002370B5064C050008002360FBF76CFF431C03D12368002B00D02B6070BDC046C43100207047704762
:405040000B1F1A68101F002A04DA891804390B68D018043870470000134A1088810703D08107890F401A001D11791030484381B25088820703D08207920F801A001D80001D
:4050800040180A494030098980B2CA0701D0503080B2890706D504495422091F09785143081880B2704700004E0C00203C10002010B501F0E9FE10BD10B500F055FA10BD28
:4050C00010B50749044609780220002907D1204601F02AFF002802D120460AF0A3FE10BDDE0D002070B504460120002C12D02368002B0FD0616800290CD0074D062228892B
:40510000208118462968FFF772FB6968606809780170002070BD00003C100020FFB585B0002768460E9D07734F481C460078002802D0082009B0F0BD10990F9801900095E6
:40514000029105A807C800F001F90028F2D16946264603AB84460873002C19D0002115E08A00B75A082F09D990198078002805D0083FB7521878401C187005E0002914D00A
:405180000027B75290198770491CC9B2A942E7D360460028CED10F98002809D0109901F023FA002804D00120C4E701208446EFE701F06AFE2D4800214160816005990160D5
:4051C00021888180022D07D3A1798171A17AC171A1890181218A418100211EE0481C19E082008B00A75AE65ABE46BE4211D26F463E80B4461E190296B678BE7001967646EE
:40520000E6521719029EBB78B3706646A652019EBE70401CA842E3D3491CA942DED3134822460C3000906846037B0799069800F015F90028B8D168460B4C007B60700B4857
:405240000C3001F051FE0028AED1084907480C3107F09CFD0028A7D107F0B6FD0028A3D10121217066E70000480C002030100020F8B5054633480E460078002802D0022485
:405280002046F8BD002E5BD000242F49002D16D02A89D0070DD02868002808D003881B3BE12B04D24088FB2801D81B2801D2012409E0900707D56868002804D1F7E70020EB
:4052C000088108604860002CDAD11F482F8907811C481B21801D018041800421017119490020891C0870F80705D016480622801D2968FFF77CFA1449B80703D56A681148CF
:40530000127882700F480D46801D0860001F486001F030FE0B48801D01F01EFE28890DF007FF28890EF03CF803461033FFF794FE1F21C018890140180249308088809FE731
:4053400001249DE7480C00203C100020FFB58446384F1C460020BB883F78054602460646002F11D100290ED0029999420BD36146002908D0002C06D00A99002906D02E4B13
:405380000B99994202D2012004B0F0BD002144E0AB001F19BF78002F3BD0E35A002B38D07B43591889B22B0000F04AF8050410161C253100A7782388BC46FF27233BEB3735
:4053C000BB4222D26346032B1FD322E0A388002B1FD0302B19D31CE02389002B19D0282B13D316E0A289002A13D01346134F233BBB420AD20DE0268A002A0AD033460F4FD8
:40540000233BBB4201D2964203D901200EE0002001E000280AD16D1CEDB2099B9D42B7D31C2463435B1802998B42ACD89642AAD8AAE70000480C002079020000BAFF00006A
:4054400030B47446641E2578641CAB4200D21D46635D5B00E31830BC18470000FFB583B0002469460C801F4606468C80002806D00598002803D004983043800701D0012447
:4054800066E0002FFBD03449049809888842F6D3FEF7E0FDFEF7C6FD00F012FC002855D100F062FD002851D12C49084601F0D0F805042D0C4AD12A48049906608180002190
:4054C000C18007810C98007AC00704D0684601F0F4FC040007D10C98007A800703D501A801F0F4FC0446BF1DFEB2002C20D13146059800F05DF804001AD10DF05FFF04001E
:4055000016D16A461088928808368518144AF1B29088D288AEB29319984207D3401B801A80B201F085FB050007D000E0FF25012400F05EFA002D04D008E0F8B200F01CF997
:40554000F6E700F081FA07490120087000F0CAFB204607B0F0BD00004C0C00209D56000048100020540C002010B503480078012801D101F0FFF910BD540C002070B5084BE7
:405580000446DA889E8800205518B54206D81D68AA182260DA885118D98070BD032070BD48100020014800897047000048100020F0B587B007460D46002089000090069188
:4055C0006846FFF7DBFF844600285DD1304800990160002117E02E4B88001A680629115406D22C4C0419667882185670628805E0C419203CA67A8218567022891B68C01833
:40560000491C4280C9B2A942E5D300242DE0601CC2B2059025E01E4FA30039689600581840887118039604904E88B04217D938466F46FE80B6464F786E4677710297049F31
:405640004F800168039F5E18767879184E700168764659184E800068029F18184770521CD2B2AA42D7D30598C4B2AC42CFD36046002809D168460699FFF780FF84460028C2
:4056800002D1054900980860604607B0F0BD0000580C0020787301005C0C00207047000010B5002809D005494A68002A05D0011F08788000105801F069FA10BD580C00201E
:4056C00010B50446FFF76EFFC0B2801DA0420CD307484068002808D0A100405801F0C8F9002801D00470001D10BD002010BD0000580C0020F8B516460D460446FFF752FFD1
:40570000C0B2801DA04203D20020C0430090F8BDB2B2E9B2684601F0D1F90099481C03D0024AA000526811500098F8BD580C0020F8B50746FFF736FF801DC6B20A4900207E
:4057400005460C680DE06178002907D06188B94202D32078FFF7B4FF002804D1241D6D1CEDB2B542EFD3F8BD580C002010B5002801D0FFF795FF10BD70B506460948002556
:4057800004680BE06178002905D062882078121D0023FFF7AFFF241D6D1CEDB2B542F1D370BD0000580C0020FFB581B00A9F16000C4620D000F0F2F8054604281BD0002F1D
:4057C0000CD03846FFF7B4FF20492A0151184860002810D03A460499FFF709F81B4928010E504618778101980570200406D47D20C000444304E0FF2005B0F0BD6404640C77
:4058000000F0BAF80746042807D000F04FFAA0420BD800F04BFA201A03E0204600F0AAFA0020F06035720020E6E700F03FFA009000F0B6FA00980121001B009000F0ECF896
:4058400002493A0151180098C860E6E754100020F8B5060116483418217A042903D0E068002802D017E00020F8BD00F01FFA054600F096FA00F0A0F804280CD001010C4867
:405880000F18F8680021451900F0C6F80020F860284600F06FFA6068054D002801D0FFF765FF042020720020A8516081E060DAE754100020FEB500266A46304601232549C2
:4058C000050169180D7A042D02D0C96800291BD000211154401CC0B20428F0D300246846005D002830D01B482101081841894768056802910021016041600422418102721B
:40590000C160002E02D015E01354E3E700F054F804280ED001010F4808180190C6680021304600F079F801980021C160304600F021FA0126002D07D038460299A847002FEC
:4059400002D03846FFF712FF641CE4B2042CC6D3FEBD0000541000200EB5002005216A460090118150810348694600680EF08BFB0EBD0000600C0020074A002001018918B5
:405980000B7A042B02D0C968002903D0401CC0B20428F3D370470000541000200549002002015218127A042A03D0401CC0B20428F6D370475410002030B50A4B04200A4C1F
:4059C00000210A011219157A042D06D0D268002A03D09A4201D808461346491CC9B20429EFD330BDFFFF0000541000207047000030B50020074C05460423020111190B72BE
:405A0000A5504D60401C4D81C0B2CD600428F4D330BD00005410002030B5094C00231A011219157A042D04D0D568002906D02D18D5605B1CDBB2042BF1D330BD2D1AF7E7A1
:405A400054100020002070471CB5002469460C70142001902346054A05480EF019FB04480068401C00D1FF2420461CBDC55A0000600C00203EB5124A0146FF2000230124E4
:405A8000126800290DD0012914D0042908D104206946009308814B8110460EF0F4FA80B23EBD6846009304814381694610460EF0E5FAF4E768460093048143816946EBE7D6
:405AC000600C002070B545890468416800890300FFF7B6FC08280509091E22282628002005F0DCFE1EE0022908D0C8B22A4621460CF0C2FB2046FFF739FE13E002202A46CF
:405B000021460CF0B9FB2946204600F00DF809E000200DF0B7FF05E02046FFF7CBFE01E0FEF718FB002070BD014B0022DB681847640C002070B5448905680089022803D003
:405B4000032809D0FF2070BD2246094C0023A46829460120A04708E0FFF7AAFA241DA2B200232946022006F0C4FF002070BD0000640C0020704700000248002141600180CD
:405B800041807047640C002070B50C46002186B016460391012802D0022859D116E003A9012006F0FBFF01281BD1039D324621462846FEF71CFE0095287801900220694675
:405BC00008814E816846FFF7B5FF41E0214D002B686809D0049004A9022006F0DFFF01281DD0022006B070BD002812D0298840182146FEF7FCFD28880024801980B2288091
:405C00006988091D884206D12C801348FFF792FF03E00320E6E788421AD96C6018E004986860E278A378110219430B4A698000231060E3565360032313815181A17881702F
:405C4000E178C1706178417021780170042028800020C7E7640C0020941000203EB515460C46022803D004280CD000203EBD0091019002206946088107484A8100680EF05C
:405C800002FA07E00CF0F8FA044B0022DB6829462046984701203EBD600C0020640C0020014AD16090607047640C0020034801688068081A0A21484300097047A0100020BC
:405CC00010B5FEF7B7F9482204490548FEF78FFD03490120C870002010BD000094730100A414002010B5FEF795F910BD70B5134C2368002B08D0207B1149C20705D0400841
:405D0000400020738868A08070BD88680B4AA18880B29268814203D90A4D691A091802E0814202D2411A5118A160A080A0689842EAD30EF0C5F900F013F870BDA01000206E
:405D4000C0102E40FFFF000010B508461946FFF7A7FF10BD704710B5FFF780FF10BD000003480021016041608160C16070470000A0100020024610B5FF20002A0CD0FFF72F
:405D8000EFFF064C0321207B0843207310010A21FEF702FC2060002010BD0000A010002000B504480A21806848430209FFF7D8FF104600BDA01000200248007B8007C00F25
:405DC00070470000A010002010B54B490868002802DA4A4B01221A70022290430860484800694549C00B4031096A0246C907C90F0A4259D0012000F07FFA3F480E216C3037
:405E0000FEF712F83E4820218430FEF70DF83C4814219C30FEF708F83948FF21C131A430FEF702F83648FF212F31B030FDF7FCFF33483449BC30FDF7F7FF31483249AC30B3
:405E4000FDF7F2FF30492E48491CB430FDF7ECFF2B482E49B830FDF7E7FF29482C49CC30FDF7E2FF26482B490830FDF7DDFF24482949A830FDF7D8FF214828498830FDF7D2
:405E8000D3FF1F4826498C30FDF7CEFF1C481921C9029030FDF7C8FFFDF7D6FFFEF7E6F8C0B2022812D01FE000290BD0002101420AD0114801216030FDF7B6FF0120FEF7B4
:405EC0009DF897E70121F2E7FF2010BD15491648FDF7AAFF14481549001DFDF7A5FF124800210830FDF7A0FF54200449C043891C0870002010BD000000F02E40740C0020CE
:405F000000002E40320300002F3F00003102000010520000EC160000FA12000031D000003AE300009956000080012E40F80F000070B50646581C80B245086D00002408E0CD
:405F4000304600F0A9F81055000A1119A41C4870A4B2AC42F4D3D80705D0D0182038D15CC47FD454C17770BD10B5FF2000F0C4F90F49FF2048700E481021801D4180012146
:405F8000417001700A490020C91C4870FFF71CFF04000AD100F010F907210648FDF734FF044807211830FDF72FFF204610BD0000740C0020CC112E4070B5002405465B1E20
:405FC0000AE0284600F068F8010A161971702D1D1055A41CADB2A4B29C42F2DB9C4203D1284600F059F8105570BD000070B500210A4D5B1E0AE0541864782602545C344385
:4060000046193480001D891C80B289B29942F2DB994202D1515C4019018070BD00102E40F0B50599091FCFB200217E1E0BE0541864782502545C2C43164D45192C80001DEA
:40604000891C80B289B2B142F1DBFC0712D01C78515C24020F4A0C4381180C809C785D78001D210280B2294384182180001D80B2D9780CE059781A7809021143054A8418F9
:406080002180001DD9789B78090280B2194380180180F0BD00102E40014940180088704700102E4010B50B490020487000F084F8002000F047F9002000F034F90721064822
:4060C000FDF7A2FE044807211830FDF79DFE002010BD0000770C0020CC112E4010B50B46062812D006DC01280CD0032801D1FFF7D9FF10BD0A28FCD00B28FAD10548007880
:40610000107010BDFFF730FF10BD1146184600F035F910BD7A0C0020F8B5244DAC6A0127A007234E002816DA307806280ED1286A384328621F480069F903084381B21D4853
:406140001030FDF771FE042000F0D6F8174802212830FDF759FEE00718D000F017FF01280FD1002000F088FF062000F0C5F81049FF20C91E48707078002802D1686B3843E5
:4061800068630A4801212830FDF73EFEE0050BD53078042802D1052000F0AEF80348FF2101312830FDF730FEF8BD000040F02E40770C002000002E4010B503212348FDF72E
:4061C00033FE0120FDF70AFF20483038406A204C80076178800F890001431C480C38FDF723FE6078002808D0401E022181401820FEF7BCFAC000083800E0B82081B21548AC
:40620000FDF712FE1348032109021438FDF70CFE10481149B830FDF707FE612189010F48FDF702FE0D480321001FFDF7FDFD0C490C48FDF7F9FD0B480B496038FDF7F4FD5F
:40624000084801218838FDF7EFFD10BD70F02E407A0C0020D8102E4090890000041E2E40FF0F000058122E40209000000849087806280BD148780749002803D1486B400854
:4062800040004863C86A01221043C86270470000770C002040F02E400148007870470000770C002000B50300FFF7CAF8080D050D0B070507090D012000BD032000BD042061
:4062C00000BD022000BDFF2000BD0000074A9168D26889B2064B92B2994204D105498A4201D1012100E000210170704780002E4033D000003FE3000010B50446FDF792FE45
:40630000072C01D9FF2C01D102480470FDF782FE10BD0000770C00200149487070470000740C002010B5064A012805D01921C9021046FDF779FD10BD1D21C902F8E70000CB
:4063400090002E4010B50A4A141D012808D009491046FDF769FD08492046FDF765FD10BD04491046891CFDF75FFD0349491DF3E788002E4031D000003AE3000070B50C4649
:406380000546FDF773FEC0B202280E49287804D0FF2810D04C280CD810E0FF2809D10A4AD0680004800F032801D0087807E09069000A553803E00878207070BD4F3820702D
:4063C000087070BD760C002000002E40F0B50122002834D0002932D00424420600D00524792342065B06D21800D0641C034600221EE00C2516466E43124D00277519AF7205
:40640000104F002ABB51696007D0661EB24209D10D4E86197606760E05E05E06760E8027BE1B00E080269B198919521C2E81D2B2A242DED303480549006B00228861104617
:40644000F0BD00002C13002079020000800C002018B50020694608700A48006900280ED0132149014018047E684604704F21C900054800F059F8A04201D0012018BD00200A
:4064800018BD0000800C0020B0100020074900200C2242435218927A012A05D0401CC0B20628F5D300207047012070472C130020F8B50E000446154609D0194F194978682D
:4064C000A04202D94018A04201D38D4201D90120F8BD31462046FEF77BF900281ED02A4631462046FEF783F9E8B200210C224A43D21913895568EE18A6420BD90126641B06
:406500001B1B9672834209DA1469C01A044AC0B220329676491CC9B20629E7D30020F8BD2C13002079020000034610B50020024604E09C5C2018521CC0B292B28A42F8D343
:4065400010BD000070B500F05FF8084C064A216907480D46FEF74BF905492846FFF736FFFFF776FF207070BD79020000800C0020B0100020002070470020054A002902D082
:40658000012902D002E0906000E0D06000207047800C002070B5084C154608460549E26889182A46FEF723F9E0684019E06028B270BD0000B0100020800C00203EB50A220B
:4065C0006946FFF7E7FF044606480A2200686946FEF7FEF8002802D00020C0433EBD20463EBD0000840C0020002802D0044A914201D2FF20704703494A6108610020704726
:4066000079020000800C0020024800218160C16070470000800C002070B5074C15460548A26880182A46FFF743FFA0684019A06028B270BDB0100020800C002010B50349F4
:406640000A220968FFF7E8FF10BD0000840C002010B50F4A002313600E4A13600E4B18600E4801600E49012008600E490860000290600E490C4808600D4914300860FF383F
:406680001538506000F0BCF800F0CAF9002010BDB40C00209C0C0020C80C0020CC0C0020B80C0020A80C002074140020AC0C0020C00C0020014610B50020002910D0094B58
:4066C0001A689C685118A14209D25868196080188A0704D08A07920F891A091D196010BD002010BD9C0C0020F8B50024164E671E321F3D463168136806E01422624310321C
:406700008A58521C1BD0641C9C42F6D36A1C14D02C461422544322460C3288500C214843FFF7C8FF3168002808510AD031680020103408517068401C70602846F8BD25467F
:40674000E4E73846F8BD0000AC0C0020F3B50026F64381B000281BDB1E490968884217D80299002914D01B4F142204463F1D54432546396810354859401C09D0FDF752FC6E
:4067800038682F1F4159C359994203DBFDF742FC3046FEBD214608310091465801590C20704308180C220299FEF721F80948761C001D0068C159B14200D100260549009AC6
:4067C000091D865008684159491C4151FDF722FC0020FEBDA80C0020002803DB07490968884202D90020C043704704491422091D096850431030085870470000A80C0020BD
:40680000F0B500200D4A451E0346171F50600FE014260146714314680E1DA3510C461668083433511668083435511468401C635039688842ECD30020F0BD0000AC0C0020C1
:40684000F3B50026F64381B0002841DB2349096888423DD8029900293AD0204F142204463F1D54432546396810354859401C2FD0FDF7D8FB3868415900292BD0211D0091EF
:4068800046580C21005971430F46C1190C220298FDF7ADFF11480021001D0068761C00590C34C0190160416081600C48001D00680159B14200D100260849009A091D86507F
:4068C00008684159491E4151FDF7A4FB0020FEBD3046FEBDFDF79EFBFAE70000A80C0020FEB504460D4600201E49089E0860471E009001900290002C11D0486885420ED253
:40690000002A0CD0002E0AD0642E08D808460C3001681C2068430C18207A002801D03846FEBD0120226020721846FFF7DDFE6060401C13D06681A6810A4827610C306761BE
:406940000179A94200D205710021684601810A462846029B00F040F82846FEBD00202072DDE70000B40C002038B50124009400F039F838BDFEB50027164EFF433D46002434
:406980000EE01C20316860430818017A002906D04068FFF721FF002801D0254603E0641C3079A042EDDA681C12D01C2130684D434419FDF737FB69466068FFF741FF0546BA
:4069C000FDF728FB002DD9D1216868468847D5E7FEBD0000C00C002038B50024009400F001F838BD1FB500220C49541E0A60002811DB496888420ED808491C220C310968E4
:406A000050430818406801A9FFF7A0FE401C02D0002004B010BD2046FBE70000B40C0020F0B50021114A4D1E174611710C3F0B46BD6016E008461C2460431668041D355156
:406A400014680646235014680836A3551468361DA353044616680A34335318301468491C255078688142E5D30020F0BDC00C002038B500210091002811DB0F4909788842D0
:406A80000DDA0D4D04010C3529680859002807D0201D0818694600F06FF9002801D0002038BDFDF7BFFA28680F34015D491E0155FDF7B0FA009838BDD00C0020F7B582B04C
:406AC000002502986E1E06602E48D21C024017462D4A2C4610460C380178106805E02301C358002B0FD0641CE4B28C42F7D3711C28D03401211D40180191039900F02AF901
:406B000000281FD101E02646F1E71F48016820460C300F521C480399026820460E30115419480399026820460F3011540398784300F0A0F8144900280968085102D000243E
:406B4000009011E001251AE00F48016801980818009900F02CF9002801D0012502E00098C0190090641CE4B203988442ECD3002D05D10298066004480179491C0171284607
:406B800005B0F0BDFCFF0000DC0C0020F8B50D4600216A468C461180002839DB23490978884235DA214B04010C3319680A59002A2ED020460C300B5A801C0E5C1846704360
:406BC0008018954224D3854222D2002006E007465F43BF18AF4206D0401CC0B2B042F6D36046002814D0114E271DC8190C366A46294600F006F900280AD168460088012870
:406C000008D030682946C01900F0D1F8002803D00120F8BD0020F8BDFDF704FA30680F34015D491C0155FDF7F5F9F3E7D00C0020F8B50F46002400F031F8002817D10C49FB
:406C400000220B460C334A600EE021011D680E466A501D680C36AA53B61C1D680F31AA551D68641C6A54E4B2BC42EED31A71F8BDD00C002000280BD0C01C074A81085068F6
:406C8000890053884118994203D89368516018187047002070470000D00C0020F8B5064600200F4D009029700C0121466846FEF765FC00280CD129460C3100980860301BE9
:406CC000001F84B221466846FEF758FC002801D0FF20F8BD6C800098A8600020F8BD0000D00C0020F8B5002827DB19490978884223DA174C05010C342168485900281CD04F
:406D000028460C30085A009028460E300E5C401C0E5420682F1DC01900F064F800280CD12068002445590EE0094829460C300068C01900F03CF8002801D00120F8BD0098E5
:406D40002D18641CE4B2B442EED30020F8BD0000D00C002030B50D4604000BD0A800FFF789FF6060002805D000202570C0436080002030BD012030BD70B50D46040005D032
:406D8000002D03D00220205E002801DA012070BDFDF748F90221615E60688900405828606088401E6080FDF735F9002070BD70B50D46040007D0002D05D002212078615EF6
:406DC000401E814201DB012070BDFDF72BF96088401C00B26080616880000D50FDF71AF9002070BD10B5040009D0227800216068FDF706FD0020C0436080002010BD012033
:406E000010BDF0B500231D46002802D00224045F0AE00120F0BD46689F00F6598E4201D1012503E05B1CDBB29C42F4DA15700020F0BD00000148007870470000E40C00204E
:406E40007CB505460024FEF733F9A8796946087000A8062229460130FDF7C9FC0021684604F0E2FF0C2806D0072806D01F2806D0122806D006E0022404E0042402E02724BB
:406E800000E0012420467CBD10B500F0AFF9FFF703FAFFF707FA10BD70B504460025FEF707F9002C06D0A079012803D8214602F043FD00E00125284670BD014601200029A7
:406EC00002D05020088000207047000001460120002905D003485422007850430880002070470000E60C002010B502460D49FE204870032410460DF0E9FB002810D10DF0B1
:406F00008DFB00280CD105F0A5FE002808D100F089FB002804D105F057FA002800D10024204610BDE40C002070B50025044600280ED0A07901280BD8FEF7BAF8A07900286D
:406F4000204602D003F03CF803E003F011F800E00125284670BD0000014610B50120002904D006220248FDF742FC002010BD0000F00C002001460120002903D0087802492C
:406F80000870002070470000E60C00200148007970470000AC1500201CB5FF206946087100200870FEF784F86A4601A90620FFF795F86946002008561CBD000038B50446B5
:406FC0000120002C20D0617801291DD800290BD0FF25E535FEF76CF80C4828180088C0B22070072803D00EE0FF25CD35F2E70020694608706846FFF769F96946087801280F
:4070000001D108202070002038BD000000102E4010B507480024807B002806D00448203001F0F4FF012800D1FE24204610BD0000EC140020014A002192681047E40C002046
:4070400008B500226B461A7026280CD0094A342852680BD0352805D1900703D50021352005F0D4FE08BD19462620F9E7D007F9D03420F5E7E40C0020014908717047000005
:40708000AC150020F8B504460120002C26D06178012902D92278092A20D8002905D0FF25E5352078092803D004E0FF25CD35F8E708202070FDF7FCFF2078114F114E082823
:4070C0000DD00020FFF73EF970780128207810D00D4969180880FE2070700020F8BD0120FFF730F90720B8810549203188800120F2E7B8810248217820308180EBE700002B
:40710000C0112E40E40C002000102E4010B509480024807B00280BD0FFF7BEF8062801D0032800D12824FFF773FFFE2800D12824204610BDEC14002070B50E46050001D00A
:40714000002400E00C4C002C11D0E28A500609D5D107C90F022003F00DF8E08A40218843E08204E0D107C90F012003F003F83146284602F0E7FC70BD0C150020F8B5054681
:40718000002004460D4E009013E022466946284600F0A6FE0098002801D00DF079FAA878214602F01BFBA878214602F009FB641CE4B2308AA042E8D8F8BD0000D415002031
:4071C000064A02235188891C89B25180814201D8102900D95380508870470000F60C00200148407870470000F60C002038B51E4CFFF752F8042813D0052811D0062812D0C0
:4072000003282AD007280AD100206946087002460120FEF763FFFFF73FF80128FBD138BD00F0E1FB38BD02F045FB00F0DCFB02F0A5FB8007800F0228F4D10C48418800296A
